:020000040000FA
:1000000001309A009B009C0113201A2021204220DD
:100010000322BF200D229D131D1CF5206120892085
:10002000412164000E28831285011F30831685004C
:100030008312080083128601003083168600831223
:10004000080064301722303086008615861105308E
:100050001722303086008615861164301722303022
:10006000860086158611742120308600861586113B
:100070007421283050210C3050210130502106309D
:10008000502108000130502181305021423061213F
:10009000BD3061216530612186305021A830612159
:1000A0006F306121BF3061216F306121BA30612131
:1000B0008D305021A930612163306121BF30612131
:1000C00008009A0B88289B0B88289A21CC30AA21FB
:1000D000BE30AA21C8219800A221CC30B921BE305F
:1000E000B921D8219700D0209A21CC30AA214430C0
:1000F000AA210514831605108312A221CC30B92140
:100100004430B92185148316851083124A309B0030
:1001100008009C018F019001851D1C17051D9C1670
:100120009C0A9C0B9428AD281430172285191C13A7
:1001300005199C128F0BA028900BA0289C019C17DE
:10014000640005081C391D3C9100910B9A28AE20D3
:10015000BF209C1FAD28F5209C0108009C1A990A1D
:100160001C1B99031908283C9100911B990319083D
:100170000A3C91009103911F990AE8210800CC30B4
:1001800050212030991B2D30612119087721150845
:10019000303E61211608303E6121DF3061210800C8
:1001A000C03050212030971B2D3061211708772156
:1001B0001508303E61211608303E6121DF30612193
:1001C00063306121C63050212030981B2D306121D1
:1001D000180877211508303E61211608303E61214C
:1001E000DF3061216330612108009D1306101D106E
:1001F000EF2101305021833050214F306121BF3039
:1002000061216F306121BE306121B8306121BF3082
:10021000612165306121BB306121C4306121C5306D
:10022000502142306121C3306121BA306121BB309D
:100230006121C6306121C030612165306121BD304E
:10024000612164009C01851D1C17051D9C169C0ADC
:100250009C0B2B2921291430172285191C130519F1
:100260009C129C0A9C0B35292129640005081C3925
:100270001D3C9100910B35291D14EF214220BF2018
:100280000800190818029100910A910B48294F297A
:10029000911B4D299D1306104F299D170614080028
:1002A0009300F0399D1B013E860086158611930E42
:1002B0001308F0399D1B013E8600861586117421B6
:1002C00008009300F0399D1B013E860086148615B8
:1002D0008611930E1308F0399D1B013E860086148B
:1002E0008615861174210800023017220800940038
:1002F000941F7D29FF3A013E94000A309501960132
:100300009402950A941F802914079503960008000B
:1003100083160514831208008316851483120800BF
:1003200005108316051083120800851083168510AA
:10033000831208008821902132302822882132300F
:10034000282208008C219521323028228C2132303D
:1003500028220800920008308C009021920C83160D
:100360000318051483120630282288218C0BAD292E
:100370000800920008308C009521920C8316031817
:1003800085148312063028228C218C0BBC2908008E
:1003900009308C00902188210000000005080139F7
:1003A000FF3E920C053028228C0BCA291208080047
:1003B00009308C0095218C210000000005080239CD
:1003C000FF3E920C053028228C0BDA291208080017
:1003D00083121908880000308900F6210800831272
:1003E0001D08880001308900F621080083168B1350
:1003F000081555308900AA30890088148B170F30F2
:100400001722831208008312003089008316081413
:1004100083120808831299000800831201308900B2
:10042000831608148312080883129D0008008D00AB
:10043000000000006F308E0000000000000000008F
:10044000000000008E0B1C2A8D0B1A2A6400080085
:100450008D0000000000000000000000000000000F
:080460008D0B292A640008003D
:02400E00F93F78
:00000001FF
